:020000040000fa
:080000000002040000000000f2
:020000040000fa
:040008004e030000a3
:020000040000fa
:04000c004e0300009f
:020000040000fa
:040010004e0300009b
:020000040000fa
:040014004e03000097
:020000040000fa
:040018004e03000093
:020000040000fa
:04001c004e0300008f
:020000040000fa
:040020004e0300008b
:020000040000fa
:040024004e03000087
:020000040000fa
:04002800c80200000a
:020000040000fa
:04002c004e0300007f
:020000040000fa
:040030004e0300007b
:020000040000fa
:040034004e03000077
:020000040000fa
:040038004e03000073
:020000040000fa
:04003c004e0300006f
:020000040000fa
:040040004e0300006b
:020000040000fa
:0400440012030000a3
:020000040000fa
:040048002803000089
:020000040000fa
:04004c004e0300005f
:020000040000fa
:040050004e0300005b
:020000040000fa
:040054004e03000057
:020000040000fa
:040058004e03000053
:020000040000fa
:04005c004e0300004f
:020000040000fa
:040060004e0300004b
:020000040000fa
:040064004e03000047
:020000040000fa
:040068004e03000043
:020000040000fa
:04006c004e0300003f
:020000040000fa
:040070004e0300003b
:020000040000fa
:040074004e03000037
:020000040000fa
:04007800fa02000088
:020000040000fa
:04007c004e0300002f
:020000040000fa
:040080004e0300002b
:020000040000fa
:040084004e03000027
:020000040000fa
:040088004e03000023
:020000040000fa
:04008c004e0300001f
:020000040000fa
:040090004e0300001b
:020000040000fa
:040094003e03000027
:020000040000fa
:04009800460300001b
:020000040000fa
:04009c00020300005b
:020000040000fa
:0400a0004e0300000b
:020000040000fa
:0400a4004e03000007
:020000040000fa
:0400a8004e03000003
:020000040000fa
:0400ac004e030000ff
:020000040000fa
:0400b0004e030000fb
:020000040000fa
:0400b4004e030000f7
:020000040000fa
:0400b8004e030000f3
:020000040000fa
:0400bc004e030000ef
:020000040000fa
:0400c0004e030000eb
:020000040000fa
:0400c4004e030000e7
:020000040000fa
:0400c8004e030000e3
:020000040000fa
:0400cc004e030000df
:020000040000fa
:0400d0004e030000db
:020000040000fa
:0400d4004e030000d7
:020000040000fa
:0400d8004e030000d3
:020000040000fa
:0400dc004e030000cf
:020000040000fa
:0400e0004e030000cb
:020000040000fa
:0400e4004e030000c7
:020000040000fa
:0400e8004e030000c3
:020000040000fa
:0400ec004e030000bf
:020000040000fa
:0400f0004e030000bb
:020000040000fa
:0400f4004e030000b7
:020000040000fa
:0400f8004e030000b3
:020000040000fa
:0400fc004e030000af
:020000040000fa
:040100004e030000aa
:020000040000fa
:040104004e030000a6
:020000040000fa
:040108004e030000a2
:020000040000fa
:04010c004e0300009e
:020000040000fa
:040110004e0300009a
:020000040000fa
:040114004e03000096
:020000040000fa
:040118004e03000092
:020000040000fa
:04011c004e0300008e
:020000040000fa
:040120004e0300008a
:020000040000fa
:040124004e03000086
:020000040000fa
:040128004e03000082
:020000040000fa
:04012c004e0300007e
:020000040000fa
:040130004e0300007a
:020000040000fa
:040134004e03000076
:020000040000fa
:040138004e03000072
:020000040000fa
:04013c004e0300006e
:020000040000fa
:040140004e0300006a
:020000040000fa
:040144004e03000066
:020000040000fa
:040148004e03000062
:020000040000fa
:04014c004e0300005e
:020000040000fa
:040150004e0300005a
:020000040000fa
:040154004e03000056
:020000040000fa
:040158004e03000052
:020000040000fa
:04015c004e0300004e
:020000040000fa
:040160004e0300004a
:020000040000fa
:040164004e03000046
:020000040000fa
:040208004e030000a1
:020000040000fa
:04020c004e0300009d
:020000040000fa
:040210004e03000099
:020000040000fa
:040214004e03000095
:020000040000fa
:040218004e03000091
:020000040000fa
:04021c004e0300008d
:020000040000fa
:040220004e03000089
:020000040000fa
:040224004e03000085
:020000040000fa
:04022800c802000008
:020000040000fa
:04022c004e0300007d
:020000040000fa
:040230004e03000079
:020000040000fa
:040234004e03000075
:020000040000fa
:040238004e03000071
:020000040000fa
:04023c004e0300006d
:020000040000fa
:040240004e03000069
:020000040000fa
:0402440012030000a1
:020000040000fa
:040248002803000087
:020000040000fa
:04024c004e0300005d
:020000040000fa
:040250004e03000059
:020000040000fa
:040254004e03000055
:020000040000fa
:040258004e03000051
:020000040000fa
:04025c004e0300004d
:020000040000fa
:040260004e03000049
:020000040000fa
:040264004e03000045
:020000040000fa
:040268004e03000041
:020000040000fa
:04026c004e0300003d
:020000040000fa
:040270004e03000039
:020000040000fa
:040274004e03000035
:020000040000fa
:04027800fa02000086
:020000040000fa
:04027c004e0300002d
:020000040000fa
:040280004e03000029
:020000040000fa
:040284004e03000025
:020000040000fa
:040288004e03000021
:020000040000fa
:04028c004e0300001d
:020000040000fa
:040290004e03000019
:020000040000fa
:040294003e03000025
:020000040000fa
:040298004603000019
:020000040000fa
:04029c000203000059
:020000040000fa
:0402a0004e03000009
:020000040000fa
:0402a4004e03000005
:020000040000fa
:0402a8004e03000001
:020000040000fa
:0402ac004e030000fd
:020000040000fa
:0402b0004e030000f9
:020000040000fa
:0402b4004e030000f5
:020000040000fa
:0402b8004e030000f1
:020000040000fa
:0402bc004e030000ed
:020000040000fa
:0402c0004e030000e9
:020000040000fa
:0402c4004e030000e5
:020000040000fa
:0402c8004e030000e1
:020000040000fa
:0402cc004e030000dd
:020000040000fa
:0402d0004e030000d9
:020000040000fa
:0402d4004e030000d5
:020000040000fa
:0402d8004e030000d1
:020000040000fa
:0402dc004e030000cd
:020000040000fa
:0402e0004e030000c9
:020000040000fa
:0402e4004e030000c5
:020000040000fa
:0402e8004e030000c1
:020000040000fa
:0402ec004e030000bd
:020000040000fa
:0402f0004e030000b9
:020000040000fa
:0402f4004e030000b5
:020000040000fa
:0402f8004e030000b1
:020000040000fa
:0402fc004e030000ad
:020000040000fa
:040300004e030000a8
:020000040000fa
:040304004e030000a4
:020000040000fa
:040308004e030000a0
:020000040000fa
:04030c004e0300009c
:020000040000fa
:040310004e03000098
:020000040000fa
:040314004e03000094
:020000040000fa
:040318004e03000090
:020000040000fa
:04031c004e0300008c
:020000040000fa
:040320004e03000088
:020000040000fa
:040324004e03000084
:020000040000fa
:040328004e03000080
:020000040000fa
:04032c004e0300007c
:020000040000fa
:040330004e03000078
:020000040000fa
:040334004e03000074
:020000040000fa
:040338004e03000070
:020000040000fa
:04033c004e0300006c
:020000040000fa
:040340004e03000068
:020000040000fa
:040344004e03000064
:020000040000fa
:040348004e03000060
:020000040000fa
:04034c004e0300005c
:020000040000fa
:040350004e03000058
:020000040000fa
:040354004e03000054
:020000040000fa
:040358004e03000050
:020000040000fa
:04035c004e0300004c
:020000040000fa
:040360004e03000048
:020000040000fa
:040364004e03000044
:020000040000fa
:10040000ef8520000e7f24000e0188000000000010
:10041000000020000000e000020032000001200087
:1004200020028800140007009e0007000000e00082
:1004300003003a00c0b02100010020000200370094
:100440000000200001002000810f70000100320038
:1004500014000700000020000000e000020032004d
:100460000000020000000000c01d020000000000ab
:100470000040da000000fe004440a90060002000b7
:100480000000e0000300320000002000a00188000e
:100490004440a800000006008a1f78008b1f7800e7
:1004a0000000060091018800800478000000eb0045
:1004b0001a003700e284440032a0b4009905ba0063
:1004c000e284440032a0b4009906ba00e2844400f9
:1004d00032a0b4000006eb00476fde00fd07b2005b
:1004e000636ce10003003a00ebff07000000eb0043
:1004f0000a003700606ce10004003a00005deb0088
:100500008b05e900fdff3e00040037006168e10053
:10051000010032000086eb000b00070019c7ba008b
:100520001905ba000e04e00003003a000a00e000da
:10053000e0ff3a0000000600fe07b2009e018800be
:100540008a047800f5ff3700395dba008b05e900b1
:100550000c003200295dba008b05e900080032006a
:100560000c00e00003003a00e284440032a0b40032
:10057000f5ff370019ddba008b05e900faff3a00f4
:100580008904e800e184440032a0b40000000600c1
:100590003600f800809fbe00829fbe00849fbe0090
:1005a000869fbe000000fa008400a9001d0b070012
:1005b0000000e00005003a0010002000b041880073
:1005c000100020001e0b0700030037003628ef0044
:1005d0000000eb001a0b07000080fa004f03be007a
:1005e0004f02be004f01be004f00be003600f900b2
:1005f000004006000000fa008680a9000080fa0092
:1006000000400600801f78000000fa0087a0a900c3
:1006100010002000d04088000080fa004f007800d1
:1006200000400600801f78000000fa00f0408000c3
:100630000000e800f0408800100020001041880011
:1006400084e0a9000080fa004f0078000040060016
:10065000801f78000000fa00004180000000e800e0
:100660000041880010002000204188008500a9007a
:100670000080fa004f007800004006000000fa00f9
:100680008760a9000080fa00004006000000fa0020
:100690008780a9000080fa00004006000040da00d0
:1006a0000000fe000000050003f0a200889fbe00cd
:1006b0008a9fbe008c1f78001b01070022013300b7
:1006c0006450e1004f0032006420e100520032002b
:1006d00003826c0007003b000905d0000306d00030
:1006e000820f54000c065d00020039000200320047
:1006f00089017800030678008582550004003d00da
:100700000003fd008103fd008502ea008b854200a5
:10071000840f720002003b0060001000e0801800af
:100720006011b8000005eb007a28e1000a003900ea
:1007300006007800c75ddd00f707b200878075000e
:100740002d003700828171000a0178006105600088
:100750008180d1000080d3008502e900f9ff3b00d1
:10076000060440008784480002003b006004140037
:10077000e0841c000988a300070032008a81710010
:1007800082817100610164008904d1000884d30072
:100790008b05e800170037000978a30013003a0022
:1007a0000b00e000130034008b05e900080444004e
:1007b00089844c000a4474000978a3000d003a00b3
:1007c0000b00e000070034008b05e900080444003a
:1007d00089844c0001003a000b0020000978a30036
:1007e000f7ff32000001eb00020037008281710048
:1007f0000a017800910007000cf0a70001f0a000aa
:10080000da0037006420e10002003a00838f6c00b8
:10081000da0033000801be000200be00d30037003a
:10082000889fbe008a9fbe008c1f7800be00070014
:10083000c500330003866c006450e1002e003200d6
:100840006420e100330032006150e1002f003200eb
:100850006120e1003100320085855500eb07b000d2
:1008600009002000080420000500370008044400a7
:1008700089844c000a0031000603430087834b0043
:100880000001530081815b00f8ff33000203be00ca
:100890000800a0000804440089844c00f6ff3900d9
:1008a000c639dd008301730001003200130020000f
:1008b0008904d1000884d3000998a3000500320000
:1008c0000800a7000300a0008904d1000884d30019
:1008d0008b05e8008904d1000884d3000001eb00f7
:1008e0000281d2005500070001f0a1000cf0a70022
:1008f00001f0a0009d0037006420e1009f0032005d
:100900000801be000200be00f7ff37006120e100d1
:100910009a0032006000b800f3ff370000002000aa
:1009200001f82700f0ff370014002000ca0037004c
:10093000f4ff2f00c80037000001be00650007006b
:100940000470a70003f0a1006509b1001600320091
:100950000d0035006828e10006003500f0ff2f008b
:10096000f1ff27000300e00013003b000100280016
:100970000000050000004000818048008502e90079
:10098000fcff3a0008003700f88f420002003c00ec
:100990008000eb00000005008100d1000080d30042
:1009a0008502e800fcff3a000300e00002003b0083
:1009b00060001000e0801800000006000001be008a
:1009c000440007000470a70003f0a10003f8a3008f
:1009d00013003a006509b10010003200090035002b
:1009e0006928e10002003500010028000000050030
:1009f00000004000818048008502e900fcff3a00c9
:100a000000000600f88f4200050035008100d1008b
:100a10000080d3008502e800fcff3a0000000600d9
:100a20008000eb00000005004f89de0082017800a5
:100a3000a40037006011b800b20037008100200028
:100a4000618055000b003d000b00200061fe2f006f
:100a50000100e1001d003400828171006101640029
:100a60008904d1000884d3000000e800faff3a00ae
:100a7000710020006100640003007000020060004b
:100a80000900320061044400e0844c000988a5009c
:100a9000050032008b05e8006808e10002003a001a
:100aa0008904d1000884d300f20f20000258e1002d
:100ab00005003d00c75ddd00f907b20089807500c3
:100ac00008007800000006000bf827008b00780073
:100ad00000000500c70ade00f107b200f50fb20002
:100ae00008003200e1cf4200020032000170a00095
:100af00024000500810f7000010032000408050089
:100b000044000500810f700002003a001400050047
:100b10008502e9000000400081c04800fcff3b0066
:100b20000170a000240005000004be00e9ff0700da
:100b30000003be000405be000200be00e5ff070082
:100b4000844f7500000006000200be006450e10002
:100b5000050036006420e100020036000968a300a9
:100b600001003a000800be000160a0004f067800b6
:100b70004f05be004f04be0000000600f0ff2f002e
:100b8000f1ff2700f9ff3700889fbe008a9fbe0053
:100b90008c1f7800e4ff0700ebff330003866c0036
:100ba0006450e100240032006420e100270032009c
:100bb0006150e100220032006120e100210032009a
:100bc0008b854200eb07b1000134b800003ab80051
:100bd0000804420089844a00013ab8000030b80095
:100be0008880400009014a000400330000004000f2
:100bf00081804800020149008b05e900c909dd0038
:100c0000830170000100320013002000c814de00d0
:100c10004814dd004709de001200b200c808de00fb
:100c20000884700085ff070001f0a1000cf0a70008
:100c300001f0a000cdff37006120e100cfff3200be
:100c40000801be000200be00f7ff37006150e1005e
:100c5000fcff3a00c9ff3700889fbe008a9fbe0094
:100c6000841f7800b0ff07004f00780011003300a8
:100c7000f0ff2f00838f6c0006003b000405650029
:100c80000a00a7000800370009f0a60010002000a5
:100c900008003700820f5400838f5c000300390086
:100ca0001000200001003e000000200009f0a70015
:100cb0000000ea004f05be004f04be000000e00047
:100cc00000000600881f7800030478000300e0009d
:100cd00007003d0060001000e0801800600119006e
:100ce000e081190002003b0001f02d0003003700f5
:100cf0000400070008f0a70001f0a0004f047800ee
:100d000000000600889fbe008a9fbe00008270001f
:100d10000402710004827100260032000004be004b
:100d20000200be006011b8006b092000950220008f
:100d30000182cf000a0039000541b1000082cf00d6
:100d4000070039000541b1000982cf0004003900d5
:100d50000541b1000882cf00010039000541b10012
:100d600005425200120032000a003b0082817100ed
:100d7000610164008100d1000080d3008984d30028
:100d80000884d3008b05e8000442e800f7ff3a002e
:100d9000070037000804440089844c000000480024
:100da000818048008b05e9000442e900f9ff3a0020
:100db00022ff07004f05be004f04be0000000600e2
:020000040000fa
:0c0dc000e7e70000e7e70000e7000000a4
:020000040000fa
:100dcc000000fa000041eb0011c0b30030c0b300ca
:100ddc00500607000041eb0021c0b30030c0b30047
:100dec004c0607000080fa00000006000000fa0024
:100dfc0012c0b30021c0b30030c0b30045060700d9
:100e0c0012c0b30011c0b30030c0b30041060700dc
:100e1c000080fa00000006000400fa002047980049
:100e2c000040eb00004f78002e4090000004e000e2
:100e3c00150032002e409000e54f500012003e008d
:100e4c000040eb00104798000b0037001e4090004c
:100e5c000080fb00110020000008dd0080407800bd
:100e6c001e40780000c07000004f78001e409000bb
:100e7c000040e800104798009e4090002e409000e3
:100e8c0080cf5000f1ff39001e41780021c0b30023
:100e9c0030c0b3001f0607000080fa0000000600f7
:100eac000400fa00204798000040eb00004f780047
:100ebc002e4090000004e000150032002e409000ff
:100ecc00e54f500012003e000040eb001047980028
:100edc000b0037001e4090000080fb00110020002a
:100eec000008dd00804078001e40780000c07000d3
:100efc00004f78001e4090000040e800104798001a
:100f0c009e4090002e40900080cf5000f1ff3900a1
:100f1c001e41780011c0b30030c0b300fd050700be
:100f2c000080fa00000006000200fa00004f780072
:100f3c001e407800e24f5000080036001e4078003a
:100f4c00e54f500005003e001ec0e900004178004e
:100f5c0031c0b30030c0b300ee0507000080fa00ca
:100f6c00000006000200fa00004f780011479800bc
:100f7c001e407800ef4f50000c003e001e409000c9
:100f8c00ef4f500009003e001e80fb004400dd00c6
:100f9c00804078001e40900000c070000041780036
:100fac0041c0b30030c0b300da0507000080fa007e
:100fbc00000006000200fa00004f78001e40780086
:100fcc000004e000040035001e41780051c0b3005d
:100fdc0030c0b300cf0507000080fa000000060007
:100fec000400fa00004f780011479800224798003f
:100ffc001e4078000004e000030032001e40780020
:10100c00e14f500017003a001e409000e34f500093
:10101c0014003e002e4090000004e000030032005b
:10102c002e409000e14f50000e003a001e80fb0055
:10103c004300dd00804078001e4090000080fb00e3
:10104c00000040000040780080c070002e409000ee
:10105c0000c070000041780061c0b30030c0b30024
:10106c00ac0507000080fa00000006000000fa0042
:10107c000041eb008040eb00a0c0b300a5050700c9
:10108c000080fa00000006000000fa000041eb00ae
:10109c00d1c1b30030c0b3009e0507000080fa0038
:1010ac00000006000200fa00004f780000c2b300f6
:1010bc009e40780080cf500004003e001e41780016
:1010cc0011c1b30030c0b300920507000080fa00d4
:1010dc00000006000200fa00000f780001c1b30006
:1010ec001e007800f10507000080fa0000000600e1
:1010fc000200fa00000f7800a1c0b3001e007800b7
:10110c00ea0507000080fa00000006000400fa005f
:10111c00004f7800110798001e4078000004e00092
:10112c00080032001e407800e54f500005003e00dc
:10113c009e4078006ac04000804078001e009000fd
:10114c00da0507000080fa00000006000200fa0031
:10115c00000f78001e007800deff07001e007800ec
:10116c00e3ff07000080fa00000006000000fa0010
:10117c00a2c0b3008040eb0030c0b300650507008f
:10118c00e05a2100010020004e0a07000080fa00fe
:10119c00000006000600fa008001eb00120020009f
:1011ac00a1c0b30010c4b300100107001a28ef004f
:1011bc001c28ef000040eb00004f780005003700c2
:1011cc001e80fb00e18320000041eb008270780060
:1011dc001e4fe8001e407800ff4f5000f8ff36000d
:1011ec001668ef00e1004700026e280004000900b9
:1011fc00b25878001a28ef001828ef00f0fe07000c
:10120c0010c0b30004ff070031c0b3000040eb0076
:10121c0054ff07000040eb0021ff070050c0b30053
:10122c0041ff070010c0b30062ff070010c0b300fd
:10123c009cff070012c0b30031c0b30010c0b30054
:10124c0067ff07000e00e800c0ff0700240007003e
:10125c002a000700c5ff070010002000c0408800ce
:10126c000080fa00000006000000fa000001eb000c
:10127c0071c0b30010c4b300960107001000200029
:10128c00c04088000080fa00000006000000fa0050
:10129c000041eb008040eb000040eb001d05070017
:1012ac000080fa00000006000000fa000041eb008c
:1012bc0081c0b30010c0b300160507000080fa000f
:1012cc00000006000000fa000041eb0071c1b30001
:1012dc0010c0b3000f0507000080fa0000000600e4
:1012ec000000fa000041eb008040eb0070c0b3003e
:1012fc00080507000080fa00000006000000fa0054
:10130c000041eb008040eb0080c0b30001050700fa
:10131c000080fa00000006000200fa00004f78007e
:10132c001e4178008040eb0060c0b300f904070058
:10133c000080fa00000006000200fa000041eb00f9
:10134c008040eb0010c0b300f2040700004f78009f
:10135c001e04a1001e4178008040eb0030c0b30099
:10136c00ec0407001200200071c0b30010c4b300dd
:10137c00580107000080fa00000006000200fa0085
:10138c00004f7800c0408000e10f500007003a0089
:10139c00d3ff07001e407800dfff0700e6ff0700c1
:1013ac0020002000c04088000a003700c0408000a8
:1013bc00e30f500007003a00abff0700c8ff07001f
:1013cc001e407800d4ff0700dbff07002000200040
:1013dc00c04088000080fa00000006000200fa00fd
:1013ec000041eb008040eb0010c0b300c9040700c3
:1013fc00004f78001e04a0001e4178008040eb00d6
:10140c0030c0b300c30407001200200071c0b30049
:10141c0010c4b3002f0107000080fa000000060082
:10142c000000fa00c0408000e10f500003003a00b9
:10143c00eaff070030002000c04088000080fa005e
:10144c00000006000200fa00881f78000041eb0043
:10145c0071c1b30010c0b300ae0407000080fb00e4
:10146c0061006000000f78001300370016c8bf0041
:10147c000084fb008040eb0010c6b3008104070021
:10148c00e183200080707c000041eb0071c1b3004f
:10149c0010c0b3009f0407000080fb0061006000d7
:1014ac00000f780016c8bf000040e80016e8b7002f
:1014bc0010002000e04088001e0078000000e000d2
:1014cc0003003a0016c8bf00ff4f5000e7ff36007c
:1014dc004f0478000080fa00000006000200fa00b9
:1014ec00d0408000e10f50001f003a001a28ef0096
:1014fc00c0408000e20f50000c003a005aff070079
:10150c000041eb008040eb000040eb008104070041
:10151c00004f78001e44a0001e41780071c0b3003b
:10152c0030c0b3007b0407000f003700c0408000c0
:10153c00e30f50000c003a004bff0700c1ff0700ff
:10154c000041eb008040eb000040eb007104070011
:10155c00004f78001e64a0001e41780071c0b300db
:10156c0030c0b3006b0407000080fa0000000600d6
:10157c000000fa00aaff0700e0408000e10f5000d5
:10158c0013003a0016c8bf000080fb000000e90001
:10159c00e1832000e140780030c5b30080cf5000db
:1015ac0009003a00a1c0b30010c4b3002001070029
:1015bc000080fb000080ea0000017800a1c0b300ad
:1015cc0010c4b300c30007001668ef001c28ef001e
:1015dc000080fa00000006000000fa0030c5b300dd
:1015ec0066ff07000080fa00000006000600fa0003
:1015fc00004f7800114798001207980023079800b5
:10160c001e80fb0021042000810f50003f0032009f
:10161c0031042000810f50007200320011042000b0
:10162c00810f5000a8003a001e4090000080fb0083
:10163c00ea0f500033003e00110020000008dd00ce
:10164c00c1792000810060000100e0001f003a0019
:10165c00630060000000e00001003a002900370040
:10166c001e4090000080fb00110020000008dd00ef
:10167c008080ea0060198000808060001e4090002d
:10168c000080fb001e0190000010dd0001007000c6
:10169c00601988001e4090000080fb0011002000a3
:1016ac000008dd008080ea00001680008080600069
:1016bc001e4090000080fb002e0190000010dd0009
:1016cc0001007000001688000f0037001e409000cb
:1016dc000080fb00110020000008dd008080ea0083
:1016ec0000168000808060001e4090000080fb008f
:1016fc002e0190000010dd00010070000016880023
:10170c000100370000000000700037001e40900000
:10171c000080fb000000e00030003500e30f5000bb
:10172c0003003400ef0f50002c003c001d0037006c
:10173c001e4090000080fb000080e800110020009b
:10174c000008dd008080ea00601980008080600065
:10175c001e4090000080fb000080e8001e019000fd
:10176c000010dd0001007000601988001e40900020
:10177c000080fb00110020000008dd008080ea00e2
:10178c0040168000808060001e4090000080fb00ae
:10179c002e0190000010dd00010070004016880042
:1017ac000f0037001e4090000080fb00110020004d
:1017bc000008dd008080ea00401680008080600018
:1017cc001e4090000080fb002e0190000010dd00f8
:1017dc000100700040168800010037000000000076
:1017ec003a0037001e4090000080fb000000e00033
:1017fc0030003500e20f500003003400e90f5000b8
:10180c002e003c001d0037001e4090000080fb00a5
:10181c0066004000110020000008dd008080ea0016
:10182c0060198000808060001e4090000080fb00ea
:10183c00660040001e0190000010dd0001007000e9
:10184c00601988001e4090000080fb0011002000f1
:10185c000008dd008080ea00801680008080600037
:10186c001e4090000080fb002e0190000010dd0057
:10187c000100700080168800110037001e40900097
:10188c000080fb00110020000008dd008080ea00d1
:10189c0080168000808060001e4090000080fb005d
:1018ac002e0190000010dd000100700080168800f1
:1018bc0003003700000000000100370000000000aa
:1018cc000000000001003700000000000080fa005a
:1018dc00000006000400fa00004f78001147980041
:1018ec00120798001e80fb0021042000810f50007d
:1018fc002100320031042000810f500033003200ef
:10190c0011042000810f500046003a001e40900048
:10191c000080fb00ea0f500015003e001100200073
:10192c008008dd00f0792000008060000000e000fd
:10193c0001003a000e0037001e4090000080fb00b2
:10194c00110020000008dd008080ea0020168000d5
:10195c00808060001e4090000080fb001e01900003
:10196c000010dd0001007000201688000100370017
:10197c00000000002c0037001e4090000080fb008f
:10198c0060004000ef0f50000e003e001e40900023
:10199c000080fb00110020000008dd008080ea00c0
:1019ac0060168000808060001e4090000080fb006c
:1019bc001e0190000010dd00010070006016880010
:1019cc000100370000000000170037001e40900097
:1019dc000080fb0060004000e90f50000e003e004c
:1019ec001e4090000080fb00110020000008dd006c
:1019fc008080ea00a0168000808060001e4090006d
:101a0c000080fb001e0190000010dd000100700042
:101a1c00a016880001003700000000000000000044
:101a2c0001003700000000000080fa0000000600f2
:101a3c000200fa00004f7800114798001e80fb004e
:101a4c0021042000810f50001700320031042000c7
:101a5c00810f50002000320011042000810f500033
:101a6c0029003a001e4090000080fb00ea0f500055
:101a7c0027003e00110020008008dd00f0792000d6
:101a8c00008060000000e00023003200111680008e
:101a9c001e4090000080fb000008de000040780033
:101aac0061406000220037001e4090000080fb0067
:101abc0060004000ef0f500019003e0051168000ee
:101acc001e4090000080fb000008de000040780003
:101adc0061406000160037001e4090000080fb0043
:101aec0060004000e90f50000f003e00911680008e
:101afc001e4090000080fb000008de0000407800d3
:101b0c00614060000a003700000000000700370049
:101b1c000000000005003700000000000300370043
:101b2c0000000000010037000000000000c0eb00c6
:101b3c000080fa00000006000400fa00004f780054
:101b4c00110798001e80fb0021042000810f50001b
:101b5c000900320031042000810f500009003200ce
:101b6c0011042000810f50000a003a009e009000e2
:101b7c0021168800080037009e009000611688002e
:101b8c00050037009e009000a116880000000000a0
:101b9c0001003700000000000080fa000000060081
:101bac000200fa00004f78001e80fb002104200088
:101bbc00810f50000800320031042000810f5000ca
:101bcc000700320011042000810f500006003a007b
:101bdc0010168000050037005016800003003700f7
:101bec0090168000010037000000eb000080fa0026
:101bfc00000006000000fa0041168000f03f2800ab
:101c0c00008060004016880051168000f03f2800cc
:101c1c000080600050168800010e8000f0f02f004c
:101c2c00008060000040a000000e8800000e8000c4
:101c3c00c000b300000e8800010e8000c0ff2f0012
:101c4c0000806000000e8800c221ef00c941a9008d
:101c5c00c921a900c901a800c8c1a800c8a1a80031
:101c6c00c881a800c801a900e134800000fe2f0043
:101c7c0000806000f000b300e0348800c841a80088
:101c8c00c1e1a80040012000190007000080fa0003
:101c9c00000006000000fa00d0c2a900d0e2a900a2
:101cac00d2c2a900d2e2a900012e8000f0f02f00d0
:101cbc00008060000040a000002e8800002e8000f4
:101ccc00c000b300002e8800012e8000c0ff2f0042
:101cdc0000806000002e8800c225ef00c905a90015
:101cec00c805a800c1e5a8000080fa0000000600a5
:101cfc000400fa00100798009e009000900320004a
:101d0c000088b90000007800000fe9001e00780080
:101d1c000000e000020035009e007800210e8800d3
:101d2c000080fa00000006000400fa00100798007a
:101d3c009e009000900320000088b90000007800fd
:101d4c00000fe9001e0078000000e00002003500e2
:101d5c009e007800212e88000080fa00000006000a
:101d6c000800fa00881f78001007980021079800d7
:101d7c0062479800200e80008000e800900320004d
:101d8c0000017800110009008280d800000f780053
:101d9c006011b8001e009000ae009000dffa070042
:101dac000000e0000f003a006e4090000080fb0045
:101dbc00e20f500006003200e30f50000600320024
:101dcc00e10f50005a003a00d621ef005b003700bb
:101ddc00d821ef0059003700da21ef000000000095
:101dec005600370018c0b30002002000832c2400da
:101dfc001e009000ae009000c8fa07000000e00042
:101e0c00010034000044eb000804e0004b003200f9
:101e1c006e4090000080fb00e20f50001900320071
:101e2c00e30f50002c003200e10f500042003a004a
:101e3c001e0078008000eb00fbfa07000200200077
:101e4c00432624004dfb070002002000832c2400b5
:101e5c0070fa07000001be0011fa07001e01900085
:101e6c00ae01900045fb07000200200003f82300a0
:101e7c000afa0700cefa070000007800b00e8800be
:101e8c002e0037001e0078008000eb00e6fa0700f9
:101e9c00020020004326240038fb0700020020002b
:101eac00832c24005bfa07000001be00fcf907003c
:101ebc001e019000ae01900030fb070002002000d4
:101ecc0003f82300f5f90700b9fa070000007800c1
:101edc00c00e8800190037001e0078008000eb004f
:101eec00d1fa0700020020004326240023fb070040
:101efc0002002000832c240046fa07000001be00db
:101f0c00e7f907001e019000ae0190001bfb0700d3
:101f1c000200200003f82300e0f90700a4fa0700f0
:101f2c0000007800d00e880000000000030037008d
:101f3c000000000001003700000000004f04780092
:101f4c000080fa00000006000600fa00881f7800e6
:101f5c001007980021079800200e80008000e800f0
:101f6c009003200000017800110009008280d80045
:101f7c00000f78006011b8001e009000ae009000b9
:101f8c0066fa07000000e00002003a00d625ef00d8
:101f9c001f00370018c0b30002002000832c24005f
:101fac001e009000ae0090005cfa07000000e000fc
:101fbc00010034000044eb000804e000140032007f
:101fcc001e0078008000eb0097fa0700020020004a
:101fdc0043262400e9fa070002002000832c240089
:101fec000cfa07000001be00adf907001e019000bd
:101ffc00ae019000e1fa07000200200003f8230074
:10200c00a6f907006afa070000007800b02e8800d5
:10201c004f0478000080fa00000006000600fa0069
:10202c00000f780012079800230798001e00780014
:10203c002fff070012c0b3001e009000ae009000ee
:10204c0047ff070022c0b3001e009000ae009000b6
:10205c0043ff070032c0b3001e009000ae0090009a
:10206c003fff07000080fa00000006000600fa009f
:10207c00000f780012079800230798001e007800c4
:10208c0029ff07001e009000ae009000aeff070075
:10209c000080fa00000006000000fa00881f78009b
:1020ac00ca05070002e8b700504080000000e800b5
:1020bc005040880002c8bf000004e00006003a004f
:1020cc0050408000e30f500003003a001000200045
:1020dc00204088000a28ef0050408000e30f500099
:1020ec0001003a000a28ef00204080000000e000c8
:1020fc0092003a0000002000011f24003f06070058
:10210c000000eb004406070002c8bf000080fb0083
:10211c006101b900e0ff2f00f1ff2f000200400029
:10212c0083804800e205200003002000820f50004d
:10213c00838f5800a4003e00006001006c00370043
:10214c00a300370064003700a1003700650037009a
:10215c009f0037005a0037009d0037009c00370065
:10216c009b00370059003700990037009800370062
:10217c009700370061003700950037009400370056
:10218c009300370092003700910037009000370021
:10219c008f003700480037008d0037008c00370067
:1021ac008b0037008a003700890037008800370021
:1021bc008700370057003700850037008400370050
:1021cc008300370082003700810037008000370021
:1021dc007f0037007e0037007d0037007c00370021
:1021ec007b0037007a003700790037007800370021
:1021fc007700370044003700750037007400370053
:10220c007300370072003700710037007000370020
:10221c006f0037006e0037006d0037006c00370020
:10222c006b0037006a003700690037006800370020
:10223c00670037003d003700650037006400370049
:10224c006300370062003700610037006000370020
:10225c005f0037005e0037005d0037005c00370020
:10226c005b0037005a003700590037005800370020
:10227c005700370056003700550037005400370020
:10228c005300370052003700510037005000370020
:10229c004f0037004e0037004d0037004c00370020
:1022ac004b0037004a003700490037004800370020
:1022bc00470037001a0037000068ef004500370070
:1022cc0010c0b30000e8b7004200370020c0b300d4
:1022dc0000e8b7003f00370030c0b30000e8b7009b
:1022ec003c00370040c0b30000e8b70039003700ad
:1022fc0050c0b30000e8b7003600370000c0eb0058
:10230c0000e8b70033003700e0cfb30000e8b700b7
:10231c0030003700d0cfb30000e8b7002d003700f5
:10232c00c0cfb30000e8b7002a003700b0cfb3002d
:10233c0000e8b700000000002600370030408000a5
:10234c004140800018c0b30002002000e32b2400a1
:10235c0074f907000000e00001003c000044eb00b1
:10236c000804e0000900320010002000aa05070054
:10237c0000002000811c2400a005070000002000a4
:10238c0021282400fb030700080037001000200060
:10239c00a105070000002000811c24009705070000
:1023ac0000002000612e2400f2030700070507003f
:1023bc0002e8b70002c8bf00e84f500005003a0021
:1023cc000428ef0003003700000000000100370074
:1023dc000000000000c8bf006600b90000007800d3
:1023ec000040780001e8b700204080000000e000c9
:1023fc000a003a0001c8bf000000fb00f005b00065
:10240c00cf80de0085f9070030408800414088000d
:10241c003040800041408000d60307004f04780014
:10242c000080fa00000006000000fa0080418000e5
:10243c000000e00014003200e10f500026003a00ca
:10244c002ec8bf000080fb008000eb0076f907006f
:10245c00c8030700e18220009140780080c6b300d9
:10246c0080cf5000020036003028ef001b003700f0
:10247c00e18220009140780032c8bf0000c04000cb
:10248c002ee8b700150037002ec8bf000080fb00f7
:10249c008000eb0064f90700b6030700e18220001e
:1024ac009140780050c5b30080cf500003003e002f
:1024bc00100020008041880008003700e1822000d5
:1024cc009140780032c8bf0000c050002ee8b70021
:1024dc000000000001003700000000000080fa003e
:1024ec00000006000200fa00b8040700004f780054
:1024fc001e4078000004e000020032006000b800ca
:10250c003e0507000080fa00000006000000fa00fb
:10251c00001280004600de00614060000080fb007d
:10252c000080fa00000006000000fa000012800093
:10253c000000d100614060000080fb000080fa00c8
:10254c00000006000000fa00001280000040780035
:10255c00614060000080fb000080fa000000060073
:10256c000000fa004022ef0001368000f00f2e0030
:10257c000080600000b0a00000368800413580006b
:10258c00f00f2e00008060000080a0004035880015
:10259c00c822a9002c63a8004135800000fe2f0042
:1025ac000080600040358800c802a8002c43a800b9
:1025bc001136800000fe2f00008060009000b300f8
:1025cc0010368800c842a9002c83a800cc42a80071
:1025dc0011368000f00f2e0080806000007020000b
:1025ec000100700010368800c862a9002ca3a80056
:1025fc00c0e2a900d0c2a800b013200010128800bd
:10260c004422ef000012800000f0a00000128800ad
:10261c000080fa00000006000000fa0000128000a2
:10262c0000f0a100001288000080fa0000000600f3
:10263c000200fa00004f7800bbff07000000e0002a
:10264c000c003a00ca42a9001e80fb004012880010
:10265c0000000000b4ff07000000e000fdff3a009e
:10266c0000000000b7ff07000000e000fdff320093
:10267c00ca42a80040128000004078000080fa0096
:10268c00000006000400fa0020479800314798002b
:10269c00a5ff07000000e0001a003a00ca42a9009a
:1026ac002e4090000080fb004012880000000000cb
:1026bc009dff07000000e000fdff3a000000000055
:1026cc00a0ff07000000e000fdff32004012800078
:1026dc00004f78003e4090000080fb0040128800c4
:1026ec000000000090ff07000000e000fdff3a0032
:1026fc000000000093ff07000000e000fdff320027
:10270c00ca42a80040128000004078000080fa0005
:10271c00000006000400fa00004f780011479800f2
:10272c00224798001e80fb00e60f50001c00320070
:10273c00e60f500007003c00e10f5000140032007f
:10274c00e30f50000d0032000000e00008003200e2
:10275c0021003700e80f500018003200e80f50003d
:10276c0013003500ea0f5000170032001a00370032
:10277c0000c0eb00aeff0700190037001e409000b0
:10278c000054a000ae409000beff070014003700bc
:10279c008040eb001e409000baff0700100037008d
:1027ac00ae40900000cab300b6ff07000c00370023
:1027bc0010ceb3009eff07000900370020ceb300f7
:1027cc009bff07000600370031c7b30000c5b300fc
:1027dc00acff07000200370000c0eb0094ff0700bd
:1027ec000080fa00000006000600fa0010079800ae
:1027fc00414798004cff07000000e00027003a001a
:10280c00ca42a9004e4090000080fb004012880094
:10281c000000000044ff07000000e000fdff3a004c
:10282c000000000047ff07000000e000fdff320041
:10283c0040128000804078001e0090000148780013
:10284c000040eb00004f7800100037004822ef00ea
:10285c000000000034ff07000000e000fdff3a001c
:10286c000000000037ff07000000e000fdff320011
:10287c001e80fb009e0090000080400041128000f2
:10288c0081407800014878001e4fe8001e40780017
:10289c00e44f5000edff3600ca42a8004012800001
:1028ac00004078000080fa00000006000600fa00e4
:1028bc0010079800414798001bff07000000e0003c
:1028cc0025003a00ca42a9004e4090000054a000d6
:1028dc000080fb00401288000000000012ff07007f
:1028ec000000e000fdff3a000000000015ff0700ab
:1028fc000000e000fdff32000040eb00004f7800cc
:10290c001100370040128000104798001e80fb0019
:10291c009e00900000804000104078000080fb007a
:10292c004012880000000000fffe07000000e000dd
:10293c00fdff3a000000000002ff07000000e0006d
:10294c00fdff32001e4fe8001e407800e44f50009f
:10295c00ecff3600ca42a80040128000004078000c
:10296c000080fa00000006000000fa000621ef00cb
:10297c0011e1a90011a1a90010c1a90081088000d2
:10298c00f0fc2f00008060000040a0008008880050
:10299c001061a9001021a90031058000f0ff28006a
:1029ac000080600000c0a0003005880084e0a90011
:1029bc0094e0a8000080fa00000006000000fa0075
:1029cc008008800000f0a000800888000080fa00d9
:1029dc00000006000000fa008008800000f0a10052
:1029ec00800888000080fa00000006000000fa0051
:1029fc000621ef000080fa00000006000200fa0039
:102a0c00000f78009e007800310888000080fa00e2
:102a1c00000006000200fa00000f78009e0078000b
:102a2c00610888000080fa00000006000000fa002f
:102a3c00e01c2000600888000080fa0000000600fe
:102a4c000200fa00004f78001e4078000004e000fd
:102a5c000d003200d0c8b3009e40780080cf5000eb
:102a6c0009003e001e80fb008000eb00eef7070023
:102a7c0062302b00d3b0230066f70700ccf70700b9
:102a8c0000007800600888000080fa000000060052
:102a9c000000fa00300880000080fa0000000600f8
:102aac000000fa000a21ef0013e1a90013a1a9000c
:102abc0012c1a900910880000003200001007000e1
:102acc00900888001221a9004105800080ff2f008a
:102adc00008060000010a000400588008500a9005f
:102aec009500a8000080fa00000006000000fa0023
:102afc009008800000f0a000900888000080fa0088
:102b0c00000006000000fa009008800000f0a10010
:102b1c00900888000080fa00000006000000fa000f
:102b2c000a21ef000080fa00000006000200fa0003
:102b3c00000f78009e007800510888000080fa0091
:102b4c00000006000200fa00000f78009e007800da
:102b5c00710888000080fa00000006000200fa00ec
:102b6c00000f78001e0078000000e0000d0032001d
:102b7c00701b21009e007800808f500009003e00e1
:102b8c001e0078008000eb00a7f70700b28b2b002b
:102b9c00d3d823001ff7070085f707000000780043
:102bac00700888000080fa00000006000000fa009f
:102bbc00500880000080fa00000006000200fa00b5
:102bcc00004f78001421ef001fe1a9001fa1a900fc
:102bdc001ec1a9009e40780063c060000080fb000d
:102bec00630060004400dd00f2088000f1fc2f005f
:102bfc008100610001007000f00888001e21a9000e
:102c0c0081058000f0ff28000080600000e0a0003b
:102c1c00800588008760a9009760a8000080fa00f2
:102c2c00000006000000fa00f008800000f0a00090
:102c3c00f00888000080fa00000006000000fa008e
:102c4c00f008800000f0a100f00888000080fa0075
:102c5c00000006000000fa001421ef000080fa00ca
:102c6c00000006000200fa00000f78009e007800b9
:102c7c00a10888000080fa00000006000200fa009b
:102c8c00000f78009e007800d10888000080fa00c0
:102c9c00000006000000fa00a00880000080fa0086
:102cac00000006000200fa00004f78001821ef0027
:102cbc0021e1a90021a1a90020c1a9009e40780012
:102ccc0063c060000080fb00630060004400dd0016
:102cdc0002098000f1fc2f008100610001007000ee
:102cec00000988002021a9009105800080ff2f0099
:102cfc00008060005000b300900588008780a90018
:102d0c009780a8000080fa00000006000000fa007e
:102d1c000009800000f0a000000988000080fa0083
:102d2c00000006000000fa000009800000f0a1007d
:102d3c00000988000080fa00000006000000fa007c
:102d4c001821ef000080fa00000006000200fa00d3
:102d5c00000f78009e007800c10888000080fa00ff
:102d6c00000006000200fa00000f78009e007800b8
:102d7c00e10888000080fa00000006000000fa005c
:102d8c00c00880000080fa00000006000c00fa0069
:102d9c006000b800008fbe000000eb003007980008
:102dac006000b80040079800510798000000eb0045
:102dbc00200798001c003700f0ff20003007980017
:102dcc003e0090008000eb0017f7070002002f0078
:102ddc00f35724008ff6070012ae2700430424009b
:102dec0066f7070040079800510798000200200082
:102dfc00030824004e009000de0090005ff70700ef
:102e0c0040079800510798004e019000de01900099
:102e1c001e00be0022f60700008fbe002e009000a0
:102e2c000000e800200798002e009000e40f5000ee
:102e3c00e1ff340002002000030a24001e00be0043
:102e4c0074f607000080fa00000006000800fa0083
:102e5c00881f780020079800310798006000b800a0
:102e6c00008fbe0018c0b30032332300b31024000f
:102e7c002e009000be009000a8f607000000e000b5
:102e8c00010034000044eb000804e000180032009c
:102e9c0018c0b30002002000030e24002e00900086
:102eac00be0090009ff607000000e00001003d000e
:102ebc000044eb000804e0000d003200d02429008f
:102ecc0041262400008fbe000233230033fb230075
:102edc001e00be0029f7070002002000031a240080
:102eec00eff5070091f60700000078004600370068
:102efc0018c0b30002002000030e24002e00900026
:102f0c00be00900085f607000000e00001003500cf
:102f1c000044eb000804e0001800320018c0b300b5
:102f2c0002002000030d24002e009000be00900033
:102f3c007cf607000000e00001003d000044eb00bf
:102f4c000804e0000d00320000002000011a2400eb
:102f5c00008fbe000200200003f023001e00be0004
:102f6c0006f707000200200003122400ccf507002e
:102f7c006ef60700000078002300370018c0b3007d
:102f8c0002002000030d24002e009000be009000d3
:102f9c0062f607000000e000010035000044eb0081
:102fac000804e0001700320018c0b3000200200033
:102fbc00030c24002e009000be00900059f6070070
:102fcc000000e00001003d000044eb000804e000bc
:102fdc000c00320000002000011a2400008fbe00fb
:102fec000200200003f023001e00be00e3f60700e1
:102ffc006011b800aaf507004cf607000000780035
:10300c00010037000000eb004f0478000080fa004c
:10301c00000006000000fa0084fe070040062000b5
:10302c00cefe07002628ef002828ef002a28ef0004
:10303c002c28ef002228ef002428ef001e28ef0098
:10304c002028ef005dfe0700a8fe070001003700f6
:10305c000000000010418000e10f500010003a0009
:10306c002228ef00f0408000e50f500003003a00ea
:10307c00100020003041880008003700f04080002c
:10308c00e90f5000050036001e28ef00100020004c
:10309c0030418800100020004041880017020700d2
:1030ac0030418000e10f500002003a002628ef006a
:1030bc001502070040418000e10f500002003a0069
:1030cc002828ef001302070020418000e10f500078
:1030dc0010003a002428ef0000418000e50f50005a
:1030ec0003003a001000200050418800080037000f
:1030fc0000418000e90f5000050036002028ef0049
:10310c001000200050418800100020006041880011
:10311c000402070050418000e10f500002003a0009
:10312c002a28ef000202070060418000e10f5000e6
:10313c00c7ff3a002c28ef0000020700c5ff37003c
:10314c000000fa00601980000040a000601988009f
:10315c00c842a900c0e2a900d0c2a9000080fa00b0
:10316c00000006000000fa00601680004200de003d
:10317c006140600000c0ea00614060000080fb001c
:10318c00610060004200dd00511680000120a100aa
:10319c0001007000501688000080fa000000060044
:1031ac000000fa00201680004700de00614060003d
:1031bc0000c0ea00614060000080fb00610060001c
:1031cc004700dd00111680000170a10001007000a5
:1031dc00101688000080fa00000006000000fa00bb
:1031ec00a01680004600de006140600000c0ea00ce
:1031fc00614060000080fb00610060004600dd0063
:10320c00911680000160a1000100700090168800ea
:10321c000080fa00000006000000fa001004800094
:10322c0000407800614060000080fb000080fa00e4
:10323c00000006000200fa00000f78001e00780063
:10324c0000407800614060000080fb00610060007d
:10325c00110480000100a10001007000100488001e
:10326c000080fa00000006000000fa0081e0a800cf
:10327c0070c0b3000600070060c0b3001400070064
:10328c0050c0b300250007000080fa0000000600c3
:10329c000200fa00004f78009e40780067c0600082
:1032ac000080fb00670060002205800081ff2f007a
:1032bc008100610001007000200588008400a900d5
:1032cc009400a8008200a8000080fa00000006000c
:1032dc000200fa00004f78000134800000f0210059
:1032ec0001007000003488009e40780067c06000c8
:1032fc000080fb00670060007205800081ff2f00da
:10330c008100610001007000700588008680a900b2
:10331c009680a8000080fa00000006000200fa0067
:10332c00004f78001134800000fe2f0000806000f8
:10333c006001b300103488009e40780067c06000c4
:10334c000080fb00670060004400dd0092058000f7
:10335c00f1f82f00810061000100700090058800d9
:10336c0087a0a90097a0a8008240a8000080fa00be
:10337c00000006000800fa00889fbe002007980095
:10338c003107980018c0b30002002000a32a2400c3
:10339c002e009000be00900060f507000000e000d9
:1033ac00010035000044eb000804e000040032008a
:1033bc0000002000a12a2400200798003107980063
:1033cc0018c0b30002002000232d24002e00900012
:1033dc00be00900053f507000000e00001003c0027
:1033ec000044eb000804e000040032000000200060
:1033fc00212d240020079800310798008040800080
:10340c00cf80de0085f507000001be002e00900085
:10341c00be009000a1f407000002be0060408000d6
:10342c00714080000001be000400be00d3f507000f
:10343c000004be0090408000cf80de0077f50700ce
:10344c000001be000800be0095f40700008fbe000e
:10345c0014c8bf00004178001e00be0040fa0700ef
:10346c004f04be000080fa00000006000000fa00c5
:10347c00d122a800c9e2a800e134800000fe2f0090
:10348c0000806000f000b300e0348800e13480007c
:10349c00f00f2e0080806000009021000100700071
:1034ac00e0348800010f800070fe2f000080600067
:1034bc000040a000000f8800010f80000070200069
:1034cc0001007000000f880000d02700200f88003a
:1034dc000080fa00000006000000fa00200f8000b7
:1034ec000080fa00000006000000fa0000d027005f
:1034fc00200f88000080fa00000006000400fa008b
:10350c000000eb00000f78000000eb0010079800a3
:10351c00f1ff0700000f7800a04180001e00500052
:10352c0010079800f0ff07009e007800a14188006a
:10353c001e019000b04721000090b900c388de0046
:10354c004f90de00008050000080fa000000060062
:10355c000400fa000dfe07003cfe0700000f780087
:10356c001e017800706626000090b900c288de004b
:10357c004f90de0000805000100798001e00900055
:10358c000000400080007800d0418000808f500007
:10359c000d003d000001eb00a1c0b30010c4b3004e
:1035ac00ccf807001e0090006500400000004000b1
:1035bc0080007800d0418000808f500010003d00ca
:1035cc003a28ef000f003700d04180006100600006
:1035dc000000e00005003a0012002000a1c0b3007a
:1035ec0010c4b300bbf80700060037000001eb0065
:1035fc00a1c0b30010c4b300b6f807000100370037
:0c360c00000000000080fa000000060032
:020000040000fa
:103618003e0800002000000000000000160800001e
:10362800080000000000000034080000020000004c
:1036380002000000007d00003608000002000000c3
:10364800000000001e080000080000000000000044
:1036580026080000080000000000000038080000ec
:103668000200000002000000010000000c08000039
:103678000a00000002000000b29def003d3c00007f
:103688000400010000000000000800000c00000019
:10369800000000002e0800000600000002000000e4
:1036a80041000100000a00003a0800000200000082
:1036b800000000003c0800000200000000000000bc
:0436c80000000000fe
:020000040000fa
:1036cc000000fa00c002a800c022a8002c03a90028
:1036dc002c23a9002023ef002223ef002143a80074
:1036ec0000f021002019880021e3a8000080fa00d6
:1036fc00000006000200fa00004f7800401980001c
:10370c00004078007f4060008080fb001e80fb0042
:10371c00808f5000090032009e4078007fc060000e
:10372c000080fb007f0060004219800001fe2f002a
:10373c008100610001007000401988002023a8005e
:10374c00900b200001002000de0007002023a900c0
:10375c000000000000198000610060000000e00023
:10376c00fcff3200001880000080fa000000060008
:10377c000400fa00100798000040eb00004f78009e
:10378c009e019000120020009e40780030c4b300cf
:10379c0096f707001e4fe8001e407800e54f5000da
:1037ac00f7ff36000080fa00000006000000fa0067
:1037bc0010002000eeff0700f103200030c4b3001e
:1037cc00ddf807000080fa00000006000200fa0095
:1037dc00f0c3b300004f78000000eb00e4ff0700db
:1037ec00f2ff07005002200001002000b500070086
:1037fc0010002000deff0700a07320000100200055
:10380c00b000070030c4b300e5f80700104798007b
:10381c001e4090001e4060000080fa000000060070
:10382c000000fa000080fa00000006000200fa0016
:10383c00004f78001e407800d0f607000080fa0098
:10384c00000006000000fa00f5f607000080fa0000
:10385c00000006000200fa00004f78000080fa0019
:10386c00000006000200fa00e0408000e10f50006a
:10387c000e003a001c28ef000040eb00004f7800cf
:10388c00050037001e80fb00e183200061407800ba
:10389c00f0ff07001e4fe80016c8bf009e407800de
:1038ac0080cf5000f7ff39001668ef000080fa0057
:1038bc00000006000000fa00900007008001eb00f9
:1038cc0012002000a1c0b30010c4b30047f70700da
:1038dc00420007000000eb004f0007000000200032
:1038ec00011f24004500070000002000e12b2400ec
:1038fc00a0fe07000080fa00000006000000fa009d
:10390c000080fa00000006000000fa000080fa00b7
:10391c00000006000000fa00dff907000080fa0042
:10392c00000006000000fa000080fa00000006000b
:10393c000000fa000080fa00000006000000fa0007
:10394c000080fa00000006000000fa00c041800070
:10395c00ed0f500001003a003828ef00c041800004
:10396c00e10f50000f003200c0418000e20f500008
:10397c000c003200c0418000e50f500009003200fd
:10398c00c0418000e60f500006003200c0418000ac
:10399c00e90f500003003200c0418000ea0f5000d4
:1039ac0005003a0012002000a1c0b30010c4b300ff
:1039bc00c8f70700040037000001eb00a1c0b300fa
:1039cc0010c4b300c3f70700c04180000000e8003a
:1039dc00c04188000080fa00000006000000fa00d8
:1039ec008001eb001200200091c0b30010c4b300a2
:1039fc00fef607000080fa00000006000400fa0042
:103a0c00008fbe0022c0b3001e00be00d4f8070019
:103a1c000080fa00000006000200fa00000f780097
:103a2c001e01780091c0b30010c4b300a9f70700c1
:103a3c000080fa00000006000200fa00000f780077
:103a4c00aefe070080007800e0418000008040005e
:103a5c00e0418800e04180009e0f500003003600da
:103a6c006000b800e5ff07000300370000002000ed
:103a7c00011a2400e1ff07000080fa000000060094
:103a8c000000fa00b0418000e10f500006003a003f
:103a9c0012002000a1c0b30010c4b3008df70700c2
:103aac0010002000050037000001eb00a1c0b3009e
:103abc0010c4b30087f707000000eb000080fa0089
:043acc0000000600f0
:020000040000fa
:103ad000f03fb1000180b10006003500ee0309009f
:103ae00000000000403fb1000180b100fbff3d003d
:103af0001000b000203fb000020035000080090037
:083b00000000000000000600b7
:020000040000fa
:103b08000000fa0014000700eefe07003af807006c
:103b1800d6fd070093fa070055fe070093fb070040
:103b2800e0fb07000080fa00000006000200fa002f
:103b380073fe0700000f78001e017800b0472100cf
:103b48000090b900c388de004f90de00008050006e
:103b58000080fa00000006000000fa00413a8000e8
:103b680000fc2f00008060000000a000403a8800a0
:103b78000080fa00000006000000fa004eff07006f
:083b880025fd0700ffff3700d7
:020000040000fa
:0200000401f009
:04000c008000000070
:020000040000fa
:0200000401f009
:04001c00deff000003
:00000001FF
